:1000000010C017C016C015C014C013C012C011C054
:1000100010C00FC00EC00DC00CC00BC00AC009C07C
:1000200008C011241FBECFE5D2E0DEBFCDBF1BD07C
:1000300076C0E6CF80B7836080BF8FB583608FBD09
:1000400080B7806C80BF8FB5806C8FBD83B78160B7
:1000500083BF8EB581608EBD12BE1DBC1CBC8AB331
:10006000816E8ABB0895E6DF80E090E02FEF30E0FC
:100070008F3F910509F06CF4A901481B590B59BD3C
:1000800048BDE7EEF3E03197F1F700C000000196BC
:10009000EFCF80E090E099BD88BDE7EEF3E03197C7
:1000A000F1F700C0000001968115F1E09F0799F774
:1000B0008FEF90E09BBD8ABDE7EEF3E03197F1F75B
:1000C00000C000000197B0F780E090E09BBD8ABDC2
:1000D000E7EEF3E03197F1F700C0000001968115DB
:1000E000F1E09F0799F78FEF90E08CBFE7EEF3E028
:1000F0003197F1F700C000000197B8F780E090E079
:100100008CBFE7EEF3E03197F1F700C000000196F5
:100110008115F1E09F07A1F780E090E0A9CFF89466
:02012000FFCF0F
:00000001FF
