:100000000C9434000C943E000C943E000C943E0082
:100010000C943E000C943E000C943E000C943E0068
:100020000C943E000C943E000C943E000C943E0058
:100030000C943E000C943E000C943E000C943E0048
:100040000C943E000C943E000C943E000C943E0038
:100050000C943E000C943E000C943E000C943E0028
:100060000C943E000C943E0011241FBECFEFD8E04C
:10007000DEBFCDBF0E9470000C94A2000C94000063
:10008000809587BD0895809588BD0895809580935B
:10009000B40008958FEF8093B40087BD88BD0895A4
:1000A000559A3B98439A84B5836084BDE0EBF0E0B9
:1000B00080818360808384B5806F84BD808180630C
:1000C000808385B5816085BDE1EBF0E08081816052
:1000D000808316BC1092B2008AB188668AB90895EE
:1000E0000E9450000E944A003599FCCF80E0809326
:1000F000B400982F909597BDE7EEF3E03197F1F7B4
:1001000000C000008F5F8F3F91F78FEF90E0282FA6
:10011000209527BD88BDE7EEF3E03197F1F700C0E9
:1001200000000197A0F78FEF8093B400982F90956F
:1001300098BDE7EEF3E03197F1F700C00000815081
:0801400099F7D0CFF894FFCF2E
:00000001FF
