:100000000C9434000C943E000C943E000C943E0082
:100010000C943E000C943E000C943E000C943E0068
:100020000C943E000C943E000C943E000C943E0058
:100030000C943E000C943E000C943E000C943E0048
:100040000C943E000C943E000C943E000C943E0038
:100050000C943E000C943E000C943E000C943E0028
:100060000C943E000C943E0011241FBECFEFD8E04C
:10007000DEBFCDBF0E9440000C9467000C940000CE
:100080008FEF8AB95E9A5D985B982FE986E891E0D8
:10009000215080409040E1F700C000005B9A5D98DD
:1000A0005E982FE986E891E0215080409040E1F78A
:1000B00000C000005D9A5E985B982FE986E891E0A9
:1000C000215080409040E1F700C00000DBCFF89461
:0200D000FFCF60
:00000001FF
