:100000000C9434000C943E000C943E000C943E0082
:100010000C943E000C943E000C943E000C943E0068
:100020000C943E000C943E000C943E000C943E0058
:100030000C943E000C943E000C943E000C943E0048
:100040000C943E000C943E000C943E000C943E0038
:100050000C943E000C943E000C943E000C943E0028
:100060000C943E000C943E0011241FBECFEFD8E04C
:10007000DEBFCDBF0E9467000C94A7000C94000067
:10008000809587BD0895809588BD0895809580935B
:10009000B400089584B5836084BDE0EBF0E0808116
:1000A0008360808384B5806F84BD8081806380831A
:1000B00085B5816085BDE1EBF0E080818160808362
:1000C00016BC1092B2008AB188668AB908950E945F
:1000D0004A0078948FEF8093B40087BD88BD2FEFDE
:1000E0008BE792E9215080409040E1F700C000008A
:1000F00080E090E08F3F91056CF4282F8093B4004E
:10010000209527BDEFECF7E03197F1F700C0000034
:100110000196F0CF8FEF90E0282F209527BD88BD66
:10012000EFECF7E03197F1F700C000000197A0F77E
:100130008FEF8093B400982F909598BDEFECF7E087
:100140003197F1F700C00000815099F7D1CFF894B2
:02015000FFCFDF
:00000001FF
