:100000000C9434000C943E000C943E000C943E0082
:100010000C9473000C943E000C943E000C943E0033
:100020000C943E000C943E000C943E000C943E0058
:100030000C943E000C943E000C943E000C943E0048
:100040000C943E000C943E000C943E000C943E0038
:100050000C943E000C943E000C943E000C943E0028
:100060000C943E000C943E0011241FBECFEFD8E04C
:10007000DEBFCDBF0E948D000C94C4000C94000024
:10008000809587BD0895809588BD0895809580935B
:10009000B40008953D98459AE8E6F0E080818260DA
:1000A0008083ECE6F0E080818062808384B58360A9
:1000B00084BDE0EBF0E080818360808384B5806F55
:1000C00084BD80818063808385B5816085BDE1EBDF
:1000D000F0E080818160808316BC1092B2008AB10A
:1000E00088668AB908951F920F920FB60F92112455
:1000F0002F938F939F931BB82FE38DE093E02150B4
:1001000080409040E1F700C000009F918F912F91B7
:100110000F900FBE0F901F9018950E944A00789480
:100120008FEF8093B40087BD88BD80E090E08F3F63
:1001300091056CF4282F8093B400209527BDE9EF3A
:10014000F0E03197F1F700C000000196F0CF8FEF9B
:1001500090E0282F209527BD88BDE9EFF0E031978A
:10016000F1F700C000000197A0F78FEF8093B40073
:10017000982F909598BDE9EFF0E03197F1F700C026
:0C0180000000815099F7D1CFF894FFCF18
:00000001FF
